{
  "contractName": "BankOracle",
  "abi": [
    {
      "constant": true,
      "inputs": [],
      "name": "sixMonth",
      "outputs": [
        {
          "name": "",
          "type": "uint256"
        }
      ],
      "payable": false,
      "stateMutability": "view",
      "type": "function"
    },
    {
      "constant": true,
      "inputs": [],
      "name": "oneMonth",
      "outputs": [
        {
          "name": "",
          "type": "uint256"
        }
      ],
      "payable": false,
      "stateMutability": "view",
      "type": "function"
    },
    {
      "constant": true,
      "inputs": [],
      "name": "threeMonth",
      "outputs": [
        {
          "name": "",
          "type": "uint256"
        }
      ],
      "payable": false,
      "stateMutability": "view",
      "type": "function"
    },
    {
      "anonymous": false,
      "inputs": [
        {
          "indexed": false,
          "name": "nextStep",
          "type": "string"
        }
      ],
      "name": "LogConstructorInitiated",
      "type": "event"
    },
    {
      "anonymous": false,
      "inputs": [
        {
          "indexed": false,
          "name": "result",
          "type": "string"
        }
      ],
      "name": "LogRateUpdated",
      "type": "event"
    },
    {
      "anonymous": false,
      "inputs": [
        {
          "indexed": false,
          "name": "description",
          "type": "string"
        }
      ],
      "name": "LogNewProvableQuery",
      "type": "event"
    },
    {
      "constant": false,
      "inputs": [],
      "name": "ExampleContract",
      "outputs": [],
      "payable": true,
      "stateMutability": "payable",
      "type": "function"
    },
    {
      "constant": false,
      "inputs": [
        {
          "name": "myid",
          "type": "bytes32"
        },
        {
          "name": "result",
          "type": "string"
        }
      ],
      "name": "__callback",
      "outputs": [],
      "payable": false,
      "stateMutability": "nonpayable",
      "type": "function"
    },
    {
      "constant": false,
      "inputs": [
        {
          "name": "_myid",
          "type": "bytes32"
        },
        {
          "name": "_result",
          "type": "string"
        },
        {
          "name": "_proof",
          "type": "bytes"
        }
      ],
      "name": "__callback",
      "outputs": [],
      "payable": false,
      "stateMutability": "nonpayable",
      "type": "function"
    },
    {
      "constant": false,
      "inputs": [],
      "name": "updateRate",
      "outputs": [],
      "payable": true,
      "stateMutability": "payable",
      "type": "function"
    }
  ],
  "bytecode": "0x608060405234801561001057600080fd5b50611c19806100206000396000f3fe6080604052600436106100705760003560e01c8063c072dcf31161004e578063c072dcf3146102db578063c7fee63e146102e5578063c8b18b5b146102ef578063f1214acd1461031a57610070565b806327dc297e1461007557806338bbfa5014610147578063986feefa146102b0575b600080fd5b34801561008157600080fd5b506101456004803603604081101561009857600080fd5b8101908080359060200190929190803590602001906401000000008111156100bf57600080fd5b8201836020820111156100d157600080fd5b803590602001918460018302840111640100000000831117156100f357600080fd5b91908080601f016020809104026020016040519081016040528093929190818152602001838380828437600081840152601f19601f820116905080830192505050505050509192919290505050610345565b005b34801561015357600080fd5b506102ae6004803603606081101561016a57600080fd5b81019080803590602001909291908035906020019064010000000081111561019157600080fd5b8201836020820111156101a357600080fd5b803590602001918460018302840111640100000000831117156101c557600080fd5b91908080601f016020809104026020016040519081016040528093929190818152602001838380828437600081840152601f19601f8201169050808301925050505050505091929192908035906020019064010000000081111561022857600080fd5b82018360208201111561023a57600080fd5b8035906020019184600183028401116401000000008311171561025c57600080fd5b91908080601f016020809104026020016040519081016040528093929190818152602001838380828437600081840152601f19601f8201169050808301925050505050505091929192905050506105ad565b005b3480156102bc57600080fd5b506102c56105d0565b6040518082815260200191505060405180910390f35b6102e36105d6565b005b6102ed610623565b005b3480156102fb57600080fd5b50610304610775565b6040518082815260200191505060405180910390f35b34801561032657600080fd5b5061032f61077b565b6040518082815260200191505060405180910390f35b61034d610781565b73ffffffffffffffffffffffffffffffffffffffff163373ffffffffffffffffffffffffffffffffffffffff161461038457600080fd5b7fe5cadafd4c3d8c384ef1e163b6fafac97b4a6b745a20b05da91560e0678a97af816040518080602001828103825283818151815260200191508051906020019080838360005b838110156103e65780820151818401526020810190506103cb565b50505050905090810190601f1680156104135780820380516001836020036101000a031916815260200191505b509250505060405180910390a16127106104616040518060400160405280600881526020017f6f6e654d6f6e7468000000000000000000000000000000000000000000000000815250610a9e565b8161046857fe5b046005819055506127106104b06040518060400160405280600a81526020017f74687265654d6f6e746800000000000000000000000000000000000000000000815250610a9e565b816104b757fe5b046006819055506127106104ff6040518060400160405280600881526020017f7369784d6f6e7468000000000000000000000000000000000000000000000000815250610a9e565b8161050657fe5b046007819055507fe5cadafd4c3d8c384ef1e163b6fafac97b4a6b745a20b05da91560e0678a97af816040518080602001828103825283818151815260200191508051906020019080838360005b8381101561056f578082015181840152602081019050610554565b50505050905090810190601f16801561059c5780820380516001836020036101000a031916815260200191505b509250505060405180910390a15050565b6000801b600360008060001b815260200190815260200160002081905550505050565b60075481565b7f11a3fca63f87bd67d7f9f72b744acc8be2193705e7a734ac3a773d35d259e87b60405180806020018281038252604a815260200180611b4f604a913960600191505060405180910390a1565b3073ffffffffffffffffffffffffffffffffffffffff16316106796040518060400160405280600381526020017f55524c0000000000000000000000000000000000000000000000000000000000815250610ab2565b11156106cf577fc4dc360d0a9c0677a3379ae0a3d81e887f761e65fdf3d7e00859d1bcd3c4738960405180806020018281038252604b815260200180611b04604b913960600191505060405180910390a1610773565b7fc4dc360d0a9c0677a3379ae0a3d81e887f761e65fdf3d7e00859d1bcd3c47389604051808060200182810382526035815260200180611acf6035913960400191505060405180910390a16107716040518060400160405280600381526020017f55524c0000000000000000000000000000000000000000000000000000000000815250604051806080016040528060558152602001611b9960559139610e43565b505b565b60055481565b60065481565b60008073ffffffffffffffffffffffffffffffffffffffff16600160009054906101000a900473ffffffffffffffffffffffffffffffffffffffff1673ffffffffffffffffffffffffffffffffffffffff16148061080957506000610807600160009054906101000a900473ffffffffffffffffffffffffffffffffffffffff16611389565b145b1561081a576108186000611394565b505b600160009054906101000a900473ffffffffffffffffffffffffffffffffffffffff1673ffffffffffffffffffffffffffffffffffffffff166338cc48316040518163ffffffff1660e01b8152600401602060405180830381600087803b15801561088457600080fd5b505af1158015610898573d6000803e3d6000fd5b505050506040513d60208110156108ae57600080fd5b810190808051906020019092919050505073ffffffffffffffffffffffffffffffffffffffff166000809054906101000a900473ffffffffffffffffffffffffffffffffffffffff1673ffffffffffffffffffffffffffffffffffffffff16146109f757600160009054906101000a900473ffffffffffffffffffffffffffffffffffffffff1673ffffffffffffffffffffffffffffffffffffffff166338cc48316040518163ffffffff1660e01b8152600401602060405180830381600087803b15801561097c57600080fd5b505af1158015610990573d6000803e3d6000fd5b505050506040513d60208110156109a657600080fd5b81019080805190602001909291905050506000806101000a81548173ffffffffffffffffffffffffffffffffffffffff021916908373ffffffffffffffffffffffffffffffffffffffff1602179055505b6000809054906101000a900473ffffffffffffffffffffffffffffffffffffffff1673ffffffffffffffffffffffffffffffffffffffff1663c281d19e6040518163ffffffff1660e01b815260040160206040518083038186803b158015610a5e57600080fd5b505afa158015610a72573d6000803e3d6000fd5b505050506040513d6020811015610a8857600080fd5b8101908080519060200190929190505050905090565b6000610aab8260006113a5565b9050919050565b60008073ffffffffffffffffffffffffffffffffffffffff16600160009054906101000a900473ffffffffffffffffffffffffffffffffffffffff1673ffffffffffffffffffffffffffffffffffffffff161480610b3a57506000610b38600160009054906101000a900473ffffffffffffffffffffffffffffffffffffffff16611389565b145b15610b4b57610b496000611394565b505b600160009054906101000a900473ffffffffffffffffffffffffffffffffffffffff1673ffffffffffffffffffffffffffffffffffffffff166338cc48316040518163ffffffff1660e01b8152600401602060405180830381600087803b158015610bb557600080fd5b505af1158015610bc9573d6000803e3d6000fd5b505050506040513d6020811015610bdf57600080fd5b810190808051906020019092919050505073ffffffffffffffffffffffffffffffffffffffff166000809054906101000a900473ffffffffffffffffffffffffffffffffffffffff1673ffffffffffffffffffffffffffffffffffffffff1614610d2857600160009054906101000a900473ffffffffffffffffffffffffffffffffffffffff1673ffffffffffffffffffffffffffffffffffffffff166338cc48316040518163ffffffff1660e01b8152600401602060405180830381600087803b158015610cad57600080fd5b505af1158015610cc1573d6000803e3d6000fd5b505050506040513d6020811015610cd757600080fd5b81019080805190602001909291905050506000806101000a81548173ffffffffffffffffffffffffffffffffffffffff021916908373ffffffffffffffffffffffffffffffffffffffff1602179055505b6000809054906101000a900473ffffffffffffffffffffffffffffffffffffffff1673ffffffffffffffffffffffffffffffffffffffff1663524f3889836040518263ffffffff1660e01b81526004018080602001828103825283818151815260200191508051906020019080838360005b83811015610db5578082015181840152602081019050610d9a565b50505050905090810190601f168015610de25780820380516001836020036101000a031916815260200191505b5092505050602060405180830381600087803b158015610e0157600080fd5b505af1158015610e15573d6000803e3d6000fd5b505050506040513d6020811015610e2b57600080fd5b81019080805190602001909291905050509050919050565b60008073ffffffffffffffffffffffffffffffffffffffff16600160009054906101000a900473ffffffffffffffffffffffffffffffffffffffff1673ffffffffffffffffffffffffffffffffffffffff161480610ecb57506000610ec9600160009054906101000a900473ffffffffffffffffffffffffffffffffffffffff16611389565b145b15610edc57610eda6000611394565b505b600160009054906101000a900473ffffffffffffffffffffffffffffffffffffffff1673ffffffffffffffffffffffffffffffffffffffff166338cc48316040518163ffffffff1660e01b8152600401602060405180830381600087803b158015610f4657600080fd5b505af1158015610f5a573d6000803e3d6000fd5b505050506040513d6020811015610f7057600080fd5b810190808051906020019092919050505073ffffffffffffffffffffffffffffffffffffffff166000809054906101000a900473ffffffffffffffffffffffffffffffffffffffff1673ffffffffffffffffffffffffffffffffffffffff16146110b957600160009054906101000a900473ffffffffffffffffffffffffffffffffffffffff1673ffffffffffffffffffffffffffffffffffffffff166338cc48316040518163ffffffff1660e01b8152600401602060405180830381600087803b15801561103e57600080fd5b505af1158015611052573d6000803e3d6000fd5b505050506040513d602081101561106857600080fd5b81019080805190602001909291905050506000806101000a81548173ffffffffffffffffffffffffffffffffffffffff021916908373ffffffffffffffffffffffffffffffffffffffff1602179055505b60008060009054906101000a900473ffffffffffffffffffffffffffffffffffffffff1673ffffffffffffffffffffffffffffffffffffffff1663524f3889856040518263ffffffff1660e01b81526004018080602001828103825283818151815260200191508051906020019080838360005b8381101561114857808201518184015260208101905061112d565b50505050905090810190601f1680156111755780820380516001836020036101000a031916815260200191505b5092505050602060405180830381600087803b15801561119457600080fd5b505af11580156111a8573d6000803e3d6000fd5b505050506040513d60208110156111be57600080fd5b8101908080519060200190929190505050905062030d403a02670de0b6b3a7640000018111156111f4576000801b915050611383565b6000809054906101000a900473ffffffffffffffffffffffffffffffffffffffff1673ffffffffffffffffffffffffffffffffffffffff1663adf59f9982600087876040518563ffffffff1660e01b8152600401808481526020018060200180602001838103835285818151815260200191508051906020019080838360005b8381101561128f578082015181840152602081019050611274565b50505050905090810190601f1680156112bc5780820380516001836020036101000a031916815260200191505b50838103825284818151815260200191508051906020019080838360005b838110156112f55780820151818401526020810190506112da565b50505050905090810190601f1680156113225780820380516001836020036101000a031916815260200191505b50955050505050506020604051808303818588803b15801561134357600080fd5b505af1158015611357573d6000803e3d6000fd5b50505050506040513d602081101561136e57600080fd5b81019080805190602001909291905050509150505b92915050565b6000813b9050919050565b600061139e6114b8565b9050919050565b600060608390506000809050600080905060008090505b83518110156114995760308482815181106113d357fe5b602001015160f81c60f81b60f81c60ff161015801561140f575060398482815181106113fb57fe5b602001015160f81c60f81b60f81c60ff1611155b1561146157811561143257600086141561142857611499565b8580600190039650505b600a83029250603084828151811061144657fe5b602001015160f81c60f81b60f81c60ff16038301925061148c565b602e84828151811061146f57fe5b602001015160f81c60f81b60f81c60ff16141561148b57600191505b5b80806001019150506113bc565b5060008511156114ac5784600a0a820291505b81935050505092915050565b6000806114d8731d3b2638a7cc9f2cb3d298a3da7a90b67e5506ed611389565b111561157a57731d3b2638a7cc9f2cb3d298a3da7a90b67e5506ed600160006101000a81548173ffffffffffffffffffffffffffffffffffffffff021916908373ffffffffffffffffffffffffffffffffffffffff1602179055506115716040518060400160405280600b81526020017f6574685f6d61696e6e6574000000000000000000000000000000000000000000815250611a0f565b60019050611a0c565b600061159973c03a2615d5efaf5f49f60b7bb6583eaec212fdf1611389565b111561163b5773c03a2615d5efaf5f49f60b7bb6583eaec212fdf1600160006101000a81548173ffffffffffffffffffffffffffffffffffffffff021916908373ffffffffffffffffffffffffffffffffffffffff1602179055506116326040518060400160405280600c81526020017f6574685f726f707374656e330000000000000000000000000000000000000000815250611a0f565b60019050611a0c565b600061165a73b7a07bcf2ba2f2703b24c0691b5278999c59ac7e611389565b11156116fc5773b7a07bcf2ba2f2703b24c0691b5278999c59ac7e600160006101000a81548173ffffffffffffffffffffffffffffffffffffffff021916908373ffffffffffffffffffffffffffffffffffffffff1602179055506116f36040518060400160405280600981526020017f6574685f6b6f76616e0000000000000000000000000000000000000000000000815250611a0f565b60019050611a0c565b600061171b73146500cfd35b22e4a392fe0adc06de1a1368ed48611389565b11156117bd5773146500cfd35b22e4a392fe0adc06de1a1368ed48600160006101000a81548173ffffffffffffffffffffffffffffffffffffffff021916908373ffffffffffffffffffffffffffffffffffffffff1602179055506117b46040518060400160405280600b81526020017f6574685f72696e6b656279000000000000000000000000000000000000000000815250611a0f565b60019050611a0c565b60006117dc73a2998efd205fb9d4b4963afb70778d6354ad3a41611389565b111561187e5773a2998efd205fb9d4b4963afb70778d6354ad3a41600160006101000a81548173ffffffffffffffffffffffffffffffffffffffff021916908373ffffffffffffffffffffffffffffffffffffffff1602179055506118756040518060400160405280600a81526020017f6574685f676f65726c6900000000000000000000000000000000000000000000815250611a0f565b60019050611a0c565b600061189d736f485c8bf6fc43ea212e93bbf8ce046c7f1cb475611389565b111561190157736f485c8bf6fc43ea212e93bbf8ce046c7f1cb475600160006101000a81548173ffffffffffffffffffffffffffffffffffffffff021916908373ffffffffffffffffffffffffffffffffffffffff16021790555060019050611a0c565b60006119207320e12a1f859b3feae5fb2a0a32c18f5a65555bbf611389565b1115611984577320e12a1f859b3feae5fb2a0a32c18f5a65555bbf600160006101000a81548173ffffffffffffffffffffffffffffffffffffffff021916908373ffffffffffffffffffffffffffffffffffffffff16021790555060019050611a0c565b60006119a37351efaf4c8b3c9afbd5ab9f4bbc82784ab6ef8faa611389565b1115611a07577351efaf4c8b3c9afbd5ab9f4bbc82784ab6ef8faa600160006101000a81548173ffffffffffffffffffffffffffffffffffffffff021916908373ffffffffffffffffffffffffffffffffffffffff16021790555060019050611a0c565b600090505b90565b8060029080519060200190611a25929190611a29565b5050565b828054600181600116156101000203166002900490600052602060002090601f016020900481019282601f10611a6a57805160ff1916838001178555611a98565b82800160010185558215611a98579182015b82811115611a97578251825591602001919060010190611a7c565b5b509050611aa59190611aa9565b5090565b611acb91905b80821115611ac7576000816000905550600101611aaf565b5090565b9056fe50726f7661626c65207175657279207761732073656e742c207374616e64696e6720627920666f722074686520616e737765722e2e50726f7661626c6520717565727920776173204e4f542073656e742c20706c656173652061646420736f6d652045544820746f20636f76657220666f722074686520717565727920666565436f6e7374727563746f722077617320696e697469617465642e2043616c6c20277570646174655261746528292720746f2073656e64207468652050726f7661626c652051756572792e6a736f6e2868747470733a2f2f6769746875622e636f6d2f7072696d6572616469616e742f4d6574614d6f6e65794d61726b65742f626c6f622f6d61737465722f62616e6b2f62616e6b72617465312e6a736f6e29a165627a7a723058202b1b2cb02b67e74f34e78037377a5fc080512f05fb4607da12f256a597f184cc0029",
  "source": "pragma solidity ^0.5.8;\nimport \"./OracalizeAPI_05.sol\";\nimport \"@openzeppelin/contracts/math/SafeMath.sol\";\n\n\ncontract BankOracle is usingProvable {\n   \n    uint256 public oneMonth;\n    uint256 public threeMonth;\n    uint256 public sixMonth;\n    event LogConstructorInitiated(string nextStep);\n    event LogRateUpdated(string result);\n    event LogNewProvableQuery(string description);\n\n    function ExampleContract() payable public {\n        emit LogConstructorInitiated(\"Constructor was initiated. Call 'updateRate()' to send the Provable Query.\");\n   }\n\n    function __callback(bytes32 myid, string memory result) public{\n       if (msg.sender != provable_cbAddress()) revert();\n       emit LogRateUpdated(result);\n      \n       oneMonth = parseInt(\"oneMonth\") / 10000;\n       threeMonth = parseInt(\"threeMonth\") / 10000;\n       sixMonth = parseInt(\"sixMonth\") / 10000;\n       emit LogRateUpdated(result);\n   }\n\n\n   function updateRate() payable public {\n       if (provable_getPrice(\"URL\") > address(this).balance) {\n           emit LogNewProvableQuery(\"Provable query was NOT sent, please add some ETH to cover for the query fee\");\n       } else {\n          emit LogNewProvableQuery(\"Provable query was sent, standing by for the answer..\");\n           provable_query(\"URL\", \"json(https://github.com/primeradiant/MetaMoneyMarket/blob/master/bank/bankrate1.json)\");\n           \n       }\n   }\n}\n",
  "sourcePath": "/Users/travis/Projects/ETHBoston/cd-bank/contracts/BankOracle.sol",
  "compiler": {
    "name": "solc",
    "version": "0.5.8+commit.23d335f2.Emscripten.clang"
  },
  "schemaVersion": "3.0.15",
  "updatedAt": "2019-09-08T13:24:56.799Z",
  "devdoc": {
    "methods": {}
  },
  "userdoc": {
    "methods": {}
  }
}